:0F0000007580007438120059740E120059740183
:10000F001200597480120059900A2912004274C0CC
:0E001F00120059900A3A1200421201C97401EF
:10002D001200597480120059900A4B12004274C08C
:10003D001200598033120050E4936006120067A33A
:0F004D0080F32279FF7A0FDAFED9FA22120050DF
:10005C00F590C2A0C2A1D2A2C2A222120050F59069
:0F006C00D2A0C2A1D2A2C2A2227500101200EA35
:10007B00B40B030200787EFF1201D47E2F1201D441
:0E008B006430120067F60500B81AE212009CFD
:1000990002002B900A00750010E4938601B5011A3D
:1000A9000500A3B81AF3740112005974801200599B
:0F00B900900A5812004212016022600DC3C2D695
:0F00C800741A95002582F58280CD7401120059BB
:1000D7007480120059900A671200427D4B12018901
:0E00E700DDFB2275B0FFC2B030B44130B54130
:1000F50030B64130B753D2B0C2B130B43A30B53A68
:1001050030B63A30B746D2B1C2B230B43330B53377
:1001150030B63330B739D2B2C2B330B43830B50B9C
:1001250030B63530B72CD2B3740B2274002274016B
:100135002274022274032274042274052274062296
:0F014500740722740822740922740B22740B228F
:10015400740B22740B22740B22740B22C2A7C2A646
:1001640031C931C97E3B31D4D2A6D2A77D3231A95F
:10017400DDFCC2A5C2A631C931C97E7B31D4D2A669
:0F018400D2A531C9227580E97E1031D47580D69D
:100193007E1031D47580B67E1031D47580797E108F
:1001A30031D4758000227580E67E1031D47580D9F4
:1001B3007E1031D47580B97E1031D47580767E106F
:1001C30031D4758000227E0A7F6431D9DFFCDEF8EA
:0F01D3002231D9DEFC22758901758CFC758A6694
:0A01E200D28C308DFDC28CC28D223C
:100A000031383036313438363934313830363134A3
:100A10003837303631383036313438373132313892
:100A200030363139393935330053414C414D2C4D35
:100A30004148415349535741210020202020205351
:100A400054415254212020202020004D4153554B29
:100A5000414E204E504D3A0053494C41484B414E77
:100A600020414D42494C004E504D2053414C41488D
:010A70000085
:00000001FF
